:10000000A01100202932000049640000593200008C
:10001000593200005932000059320000000000003F
:10002000000000000000000000000000353000006B
:100030005932000000000000E12F00005F62000064
:10004000E9310000E9310000E9310000E931000048
:10005000E9310000E9310000E9310000E931000038
:10006000E9310000E9310000E9310000E931000028
:10007000E9310000E9310000E9310000E931000018
:10008000E9310000E9310000E9310000E931000008
:10009000E9310000E9310000E9310000E9310000F8
:1000A000E9310000E9310000E9310000E9310000E8
:1000B000E9310000E9310000E9310000E9310000D8
:1000C000E9310000E9310000E9310000E9310000C8
:0C00D000E9310000E9310000E9310000D6
:0400DC00FFFFFFFF24
:1000E00081F0004102E000BF83F0004330B54FEAE9
:1000F00041044FEA430594EA050F08BF90EA020F56
:100100001FBF54EA000C55EA020C7FEA645C7FEAE8
:10011000655C00F0E2804FEA5454D4EB5555B8BF0B
:100120006D420CDD2C4480EA020281EA030382EA7C
:10013000000083EA010180EA020281EA0303362D0E
:1001400088BF30BD11F0004F4FEA01314FF4801CE1
:100150004CEA113102D0404261EB410113F0004FF3
:100160004FEA03334CEA133302D0524263EB4303AA
:1001700094EA050F00F0A780A4F10104D5F1200E48
:100180000DDB02FA0EFC22FA05F2801841F10001A3
:1001900003FA0EF2801843FA05F359410EE0A5F177
:1001A00020050EF1200E012A03FA0EFC28BF4CF0A8
:1001B000020C43FA05F3C01851EBE37101F000455E
:1001C00007D54FF0000EDCF1000C7EEB00006EEB6B
:1001D0000101B1F5801F1BD3B1F5001F0CD34908F5
:1001E0005FEA30004FEA3C0C04F101044FEA44524C
:1001F00012F5800F80F09A80BCF1004F08BF5FEAD3
:10020000500C50F1000041EB045141EA050130BDB2
:100210005FEA4C0C404141EB0101013C28BFB1F5C4
:10022000801FE9D291F0000F04BF01460020B1FA0F
:1002300081F308BF2033A3F10B03B3F120020CDAE2
:100240000C3208DD02F1140CC2F10C0201FA0CF0C0
:1002500021FA02F10CE002F11402D8BFC2F1200C25
:1002600001FA02F120FA0CFCDCBF41EA0C019040DB
:10027000E41AA2BF01EB0451294330BD6FEA040424
:100280001F3C1CDA0C340EDC04F11404C4F120020F
:1002900020FA04F001FA02F340EA030021FA04F321
:1002A00045EA030130BDC4F10C04C4F1200220FA78
:1002B00002F001FA04F340EA0300294630BD21FAB6
:1002C00004F0294630BD94F0000F83F4801306BF7C
:1002D00081F480110134013D4EE77FEA645C18BF70
:1002E0007FEA655C29D094EA050F08BF90EA020F07
:1002F00005D054EA000C04BF1946104630BD91EAFF
:10030000030F1EBF0021002030BD5FEA545C05D101
:100310004000494128BF41F0004130BD14F5800440
:100320003CBF01F5801130BD01F0004545F0FE41B4
:1003300041F470014FF0000030BD7FEA645C1ABFE9
:10034000194610467FEA655C1CBF0B46024650EA20
:10035000013406BF52EA033591EA030F41F400214C
:1003600030BD00BF90F0000F04BF0021704730B5D2
:100370004FF4806404F132044FF000054FF00001A7
:1003800050E700BF90F0000F04BF0021704730B568
:100390004FF4806404F1320410F0004548BF40423D
:1003A0004FF000013EE700BF42004FEAE2014FEA92
:1003B00031014FEA02701FBF12F07F4393F07F4F6D
:1003C00081F06051704732F07F4208BF704793F070
:1003D0007F4F04BF41F40021704730B54FF4607483
:1003E00001F0004521F000411CE700BF50EA010286
:1003F00008BF704730B54FF000050AE050EA01022F
:1004000008BF704730B511F0004502D5404261EB9E
:1004100041014FF4806404F132045FEA915C3FF4DF
:10042000D8AE4FF003025FEADC0C18BF03325FEA7C
:10043000DC0C18BF033202EBDC02C2F1200300FA2D
:1004400003FC20FA02F001FA03FE40EA0E0021FA52
:1004500002F11444BDE600BF70B54FF0FF0C4CF440
:10046000E06C1CEA11541DBF1CEA135594EA0C0FF2
:1004700095EA0C0F00F0DEF82C4481EA030621EA2D
:100480004C5123EA4C5350EA013518BF52EA033568
:1004900041F4801143F4801338D0A0FB02CE4FF01A
:1004A0000005E1FB02E506F00042E0FB03E54FF04A
:1004B0000006E1FB03569CF0000F18BF4EF0010E42
:1004C000A4F1FF04B6F5007F64F5407404D25FEA3E
:1004D0004E0E6D4146EB060642EAC62141EA5551F1
:1004E0004FEAC52040EA5E504FEACE2EB4F1FD0C33
:1004F00088BFBCF5E06F1ED8BEF1004F08BF5FEAB1
:10050000500E50F1000041EB045170BD06F0004662
:1005100046EA010140EA020081EA0301B4EB5C040F
:10052000C2BFD4EB0C0541EA045170BD41F4801107
:100530004FF0000E013C00F3AB8014F1360FDEBF2C
:10054000002001F0004170BDC4F10004203C35DA08
:100550000C341BDC04F11404C4F1200500FA05F38B
:1005600020FA04F001FA05F240EA020001F000422C
:1005700021F0004110EBD37021FA04F642EB0601A2
:100580005EEA430E08BF20EAD37070BDC4F10C04CC
:10059000C4F1200500FA04F320FA05F001FA04F290
:1005A00040EA020001F0004110EBD37041F100017C
:1005B0005EEA430E08BF20EAD37070BDC4F1200587
:1005C00000FA05F24EEA020E20FA04F301FA05F2EF
:1005D00043EA020321FA04F001F0004121FA04F297
:1005E00020EA020000EBD3705EEA430E08BF20EA67
:1005F000D37070BD94F0000F0FD101F000464000A1
:1006000041EB010111F4801F08BF013CF7D041EA22
:10061000060195F0000F18BF704703F00046520026
:1006200043EB030313F4801F08BF013DF7D043EAF7
:100630000603704794EA0C0F0CEA135518BF95EAAD
:100640000C0F0CD050EA410618BF52EA4306D1D134
:1006500081EA030101F000414FF0000070BD50EA53
:10066000410606BF1046194652EA430619D094EADD
:100670000C0F02D150EA013613D195EA0C0F05D1C7
:1006800052EA03361CBF104619460AD181EA03011B
:1006900001F0004141F0FE4141F470014FF00000D3
:1006A00070BD41F0FE4141F4780170BD70B54FF06E
:1006B000FF0C4CF4E06C1CEA11541DBF1CEA1355EE
:1006C00094EA0C0F95EA0C0F00F0A7F8A4EB0504D0
:1006D00081EA030E52EA03354FEA013100F08880C7
:1006E0004FEA03334FF0805545EA131343EA126390
:1006F0004FEA022245EA111545EA10654FEA002645
:100700000EF000419D4208BF964244F1FD0404F5FD
:10071000407402D25B084FEA3202B61A65EB030559
:100720005B084FEA32024FF480104FF4002CB6EB16
:10073000020E75EB030E22BFB61A754640EA0C0096
:100740005B084FEA3202B6EB020E75EB030E22BFD6
:10075000B61A754640EA5C005B084FEA3202B6EB17
:10076000020E75EB030E22BFB61A754640EA9C00D6
:100770005B084FEA3202B6EB020E75EB030E22BFA6
:10078000B61A754640EADC0055EA060E18D04FEA64
:10079000051545EA16754FEA06164FEAC30343EA04
:1007A00052734FEAC2025FEA1C1CC0D111F4801FD1
:1007B0000BD141EA00014FF000004FF0004CB6E7CA
:1007C00011F4801F04BF01430020B4F1FD0C88BF69
:1007D000BCF5E06F3FF6AFAEB5EB030C04BFB6EB74
:1007E000020C5FEA500C50F1000041EB045170BD67
:1007F0000EF0004E4EEA113114EB5C04C2BFD4EB94
:100800000C0541EA045170BD41F480114FF0000E17
:10081000013C90E645EA060E8DE60CEA135594EA93
:100820000C0F08BF95EA0C0F3FF43BAF94EA0C0F96
:100830000AD150EA01347FF434AF95EA0C0F7FF40B
:1008400025AF104619462CE795EA0C0F06D152EA5F
:1008500003353FF4FDAE1046194622E750EA410643
:1008600018BF52EA43067FF4C5AE50EA41047FF454
:100870000DAF52EA43057FF4EBAE12E74FEA4102B7
:1008800012F5001215D211D56FF47873B3EB6252E2
:1008900012D94FEAC12343F0004343EA505311F009
:1008A000004F23FA02F018BF404270474FF000009B
:1008B000704750EA013005D111F0004008BF6FF0D9
:1008C000004070474FF00000704700BF4FEA410200
:1008D000B2F1E04324BFB3F5001CDCF1FE5C0DD99E
:1008E00001F0004C4FEAC0024CEA5070B2F1004FE8
:1008F00040EB830008BF20F00100704711F0804FEB
:1009000021D113F13872BCBF01F00040704741F4AF
:1009100080114FEA5252C2F11802C2F1200C10FAB3
:100920000CF320FA02F018BF40F001004FEAC12397
:100930004FEAD32303FA0CFC40EA0C0023FA02F33B
:100940004FEA4303CCE77FEA625307D150EA013311
:100950001EBF4FF0FE4040F44000704701F00040E1
:1009600040F0FE4040F40000704700BF80F00040BF
:1009700002E000BF81F0004142001FBF5FEA410377
:1009800092EA030F7FEA226C7FEA236C6AD04FEA77
:100990001262D2EB1363C1BFD218414048404140BC
:1009A000B8BF5B42192B88BF704710F0004F40F46E
:1009B000000020F07F4018BF404211F0004F41F48A
:1009C000000121F07F4118BF494292EA030F3FD056
:1009D000A2F1010241FA03FC10EB0C00C3F1200369
:1009E00001FA03F100F0004302D5494260EB4000F8
:1009F000B0F5000F13D3B0F1807F06D340084FEA63
:100A0000310102F10102FE2A51D2B1F1004F40EB57
:100A1000C25008BF20F0010040EA030070474900BF
:100A200040EB0000013A28BFB0F5000FEDD2B0FA5C
:100A300080FCACF1080CB2EB0C0200FA0CF0AABF7F
:100A400000EBC25052421843BCBFD040184370471D
:100A500092F0000F81F4000106BF80F40000013223
:100A6000013BB5E74FEA41037FEA226C18BF7FEAFA
:100A7000236C21D092EA030F04D092F0000F08BF3C
:100A80000846704790EA010F1CBF0020704712F023
:100A90007F4F04D1400028BF40F00040704712F162
:100AA00000723CBF00F50000704700F0004343F0C7
:100AB000FE4040F4000070477FEA226216BF0846FD
:100AC0007FEA23630146420206BF5FEA412390EAC0
:100AD000010F40F4800070474FF0000304E000BFB6
:100AE00010F0004348BF40425FEA000C08BF704767
:100AF00043F0964301464FF000001CE050EA01022B
:100B000008BF70474FF000030AE000BF50EA01023F
:100B100008BF704711F0004302D5404261EB41012C
:100B20005FEA010C02BF84460146002043F0B64351
:100B300008BFA3F18053A3F50003BCFA8CF2083A76
:100B4000A3EBC25310DB01FA02FC634400FA02FC7F
:100B5000C2F12002BCF1004F20FA02F243EB020086
:100B600008BF20F00100704702F1200201FA02FCE8
:100B7000C2F1200250EA4C0021FA02F243EB0200DB
:100B800008BF20EADC7070474FF0FF0C1CEAD0521F
:100B90001EBF1CEAD15392EA0C0F93EA0C0F6FD0E0
:100BA0001A4480EA010C400218BF5FEA41211ED0BE
:100BB0004FF0006343EA501043EA5111A0FB0131AA
:100BC0000CF00040B1F5000F3EBF490041EAD3717F
:100BD0005B0040EA010062F17F02FD2A1DD8B3F1FB
:100BE000004F40EBC25008BF20F00100704790F06A
:100BF000000F0CF0004C08BF49024CEA502040EABC
:100C000051207F3AC2BFD2F1FF0340EAC250704781
:100C100040F400004FF00003013A5DDC12F1190FBF
:100C2000DCBF00F000407047C2F10002410021FA31
:100C300002F1C2F1200200FA02FC5FEA310040F149
:100C4000000053EA4C0308BF20EADC70704792F0C2
:100C5000000F00F0004C02BF400010F4000F013AFA
:100C6000F9D040EA0C0093F0000F01F0004C02BFF5
:100C7000490011F4000F013BF9D041EA0C018FE764
:100C80000CEAD15392EA0C0F18BF93EA0C0F0AD06A
:100C900030F0004C18BF31F0004CD8D180EA010090
:100CA00000F00040704790F0000F17BF90F0004F29
:100CB000084691F0000F91F0004F14D092EA0C0F0B
:100CC00001D142020FD193EA0C0F03D14B0218BF9E
:100CD000084608D180EA010000F0004040F0FE40E4
:100CE00040F40000704740F0FE4040F44000704780
:100CF0004FF0FF0C1CEAD0521EBF1CEAD15392EAFF
:100D00000C0F93EA0C0F69D0A2EB030280EA010CEE
:100D100049024FEA402037D04FF0805343EA111187
:100D200043EA10130CF000408B4238BF5B0042F1E5
:100D30007D024FF4000C8B4224BF5B1A40EA0C008A
:100D4000B3EB510F24BFA3EB510340EA5C00B3EBBC
:100D5000910F24BFA3EB910340EA9C00B3EBD10FAA
:100D600024BFA3EBD10340EADC001B0118BF5FEAFC
:100D70001C1CE0D1FD2A3FF650AF8B4240EBC25025
:100D800008BF20F0010070470CF0004C4CEA5020E6
:100D90007F32C2BFD2F1FF0340EAC250704740F435
:100DA00000004FF00003013A37E792F0000F00F027
:100DB000004C02BF400010F4000F013AF9D040EAA5
:100DC0000C0093F0000F01F0004C02BF490011F439
:100DD000000F013BF9D041EA0C0195E70CEAD15331
:100DE00092EA0C0F08D142027FF47DAF93EA0C0F18
:100DF0007FF470AF084676E793EA0C0F04D14B02FC
:100E00003FF44CAF08466EE730F0004C18BF31F0AD
:100E1000004CCAD130F000427FF45CAF31F00043A7
:100E20007FF43CAF5FE700BF4FF0FF3C06E000BF40
:100E30004FF0010C02E000BF4FF0010C4DF804CD63
:100E40004FEA40024FEA41037FEA226C18BF7FEA73
:100E5000236C11D001B052EA530C18BF90EA010F75
:100E600058BFB2EB030088BFC81738BF6FEAE17004
:100E700018BF40F0010070477FEA226C02D15FEAA0
:100E8000402C05D17FEA236CE4D15FEA412CE1D00C
:100E90005DF8040B704700BF844608466146FFE7D3
:100EA0000FB5FFF7C9FF002848BF10F1000F0FBDB5
:100EB0004DF808EDFFF7F4FF0CBF012000205DF8AE
:100EC00008FB00BF4DF808EDFFF7EAFF34BF012033
:100ED00000205DF808FB00BF4DF808EDFFF7E0FFCC
:100EE00094BF012000205DF808FB00BF4DF808ED1D
:100EF000FFF7D2FF94BF012000205DF808FB00BF80
:100F00004DF808EDFFF7C8FF34BF012000205DF861
:100F100008FB00BF7BB972B90029BEBF00204FF0AB
:100F2000004106E008BF00281CBF6FF000414FF0F1
:100F3000FF3000F0B9B9ADF1080C6DE904CE00291D
:100F400009DB002B1ADB00F04DF8DDF804E0DDE9E9
:100F5000022304B07047404261EB4101002B1BDBD0
:100F600000F040F8DDF804E0DDE9022304B040427F
:100F700061EB4101524263EB43037047524263EB22
:100F8000430300F02FF8DDF804E0DDE9022304B0AC
:100F9000404261EB41017047524263EB430300F072
:100FA00021F8DDF804E0DDE9022304B0524263EBEE
:100FB0004303704753B94AB9002908BF00281CBF32
:100FC0004FF0FF314FF0FF3000F06EB9ADF1080C7B
:100FD0006DE904CE00F006F8DDF804E0DDE9022357
:100FE00004B070472DE9F047089D0E4604468C4634
:100FF000002B40F081808A42174645D9B2FA82F22E
:101000004AB1C2F1200106FA02F320FA01F1974039
:1010100041EA030C94404FEA174E230CBCFBFEF64A
:10102000B9B20EFB16CC43EA0C4306FB01F0984222
:1010300009D9FB1806F1FF3C80F01581984240F277
:101040001281023E3B441B1AA4B2B3FBFEF00EFB1E
:10105000103344EA034400FB01F1A14209D93C19D1
:1010600000F1FF3380F00181A14240F2FE8002389E
:101070003C44641A40EA064000211DB1D4400023DC
:10108000C5E90043BDE8F08702B9FFDEB2FA82F29B
:10109000002A4FD1CB1B4FEA174E1FFA87F80121C8
:1010A000B3FBFEFC260C0EFB1C3346EA034608FB92
:1010B0000CF3B34207D9BE190CF1FF3002D2B34290
:1010C00000F2EB808446F61AA3B2B6FBFEF00EFBEC
:1010D000106643EA064408FB00F8A04507D93C190E
:1010E00000F1FF3302D2A04500F2D2801846A4EBF3
:1010F000080440EA0C40C0E78B4208D9002D00F0FC
:10110000AF800021C5E900060846BDE8F087B3FAC4
:1011100083F1002949D1B34202D3824200F2BB805D
:10112000841A66EB030301209C46002DAAD0C5E972
:10113000004CA7E7C2F120039740D8409140DE4021
:101140004FEA174E08434FEA104CB6FBFEF11FFA68
:1011500087F80EFB11664CEA064601FB08F3B34222
:1011600004FA02F409D9BE1901F1FF3C80F08E8027
:10117000B34240F28B8002393E44F31A86B2B3FB8D
:10118000FEF00EFB103346EA034600FB08F3B342C1
:1011900007D9BE1900F1FF3C74D2B34272D90238AC
:1011A0003E44F31A40EA01417AE7C1F1200703FA0D
:1011B00001F422FA07F31C4320FA07F906FA01F3B7
:1011C0004FEA144CFE4049EA03094FEA1943B6FBC3
:1011D000FCFE1FFA84F80CFB1E6643EA06460EFB73
:1011E00008FAB24502FA01F200FA01F308D9A61989
:1011F0000EF1FF3048D2B24546D9AEF1020E264478
:10120000A6EB0A061FFA89F9B6FBFCF00CFB106688
:1012100049EA064600FB08F8B04507D9A61900F1CF
:10122000FF3C2DD2B0452BD90238264440EA0E406F
:10123000A6EB0806A0FB02894E45C446CE4618D34D
:1012400015D075B3B3EB0C0266EB0E0606FA07F782
:1012500022FA01F3CE401F43C5E90076002111E7D1
:10126000294628460EE76646EDE6184601E743455F
:10127000E7D2B8EB020C69EB04040138A646E0E7BC
:101280006046D3E760468CE78646B9E7614674E777
:1012900002383C442BE7084647E7ACF1020C3E44D9
:1012A00011E72946EEE600BF704700BF00000000CE
:1012B000D0B504464068FFF765F809A3D3E90023D9
:1012C000FFF7F4F9064620680F46FFF75BF8024681
:1012D0000B4630463946FEF709FFD0BDAFF300801C
:1012E0000000000080842E41032973B50646144691
:1012F0005CD8002A3CD0062A58D15C681A68364B64
:10130000E517C3FB0245012C75F1000322DB3348CE
:101310002FA3D3E9002320184FF0000145EB010172
:10132000FFF7F8FD80B202281CD004281CD0082842
:101330001CD0102822D103232949F26851F8231028
:10134000116152681B011469232130223046A047E5
:1013500002B070BD234820181DA3D3E9002345F136
:10136000FF31DDE70023E7E70123E5E70223E3E7B9
:101370001B881BB11C4A01340B2C02D16FF01500E5
:10138000E6E732F814109942F5D1F5686B680DF173
:1013900007029B682021304698470028D8DB9DF83B
:1013A00007301907224604D4082C05D16FF022001B
:1013B000CEE70A2C08BF092203F00F0343EA02120A
:1013C0006B68D2B2DB68202130469847C0E700BF87
:1013D0003AA395000000000040420F009DD14A0052
:1013E00030000020632EB5FF6C7700000000000085
:1013F000F8B5044608461546FEF7C4FF06462846DB
:101400000F46FEF7D1FF02460B4630463946FFF73E
:1014100023F80FA3D3E90023FFF71EF80E4B002299
:10142000FFF744F906460F46FFF728FA0A4B2060FB
:10143000002230463946FFF70FF8FFF71FFA4FF446
:101440007A7390FBF3F202FB130253436360F8BD1F
:1014500005A3923A019D234000408F400000000008
:10146000D0B504460846FFF73BFB1549FFF78CFB58
:10147000FEF79AFF10A3D3E90023FEF7EDFF114B0F
:101480000022FFF713F906460F46FFF7F7F90D4B59
:101490002060002230463946FEF7DEFFFFF7EEF906
:1014A0004FF47A7390FBF3F202FB13025343636031
:1014B000D0BD00BFAFF300806811F16346DF913FFC
:1014C00000008C4000408F400329F8B504460D46CB
:1014D00004D0072954D06FF0220028E0002A3CD025
:1014E000062AF8D15E681A685D4BF717C3FB0267DE
:1014F000012E77F1000340DB5A480021301847EBFA
:10150000010151A3D3E90023FFF704FD02280FD006
:1015100010280FD004280FD008282ED129462046A5
:10152000E66805F03CFB002808DA6FF00400F8BD1F
:101530000025F3E70125F1E70225EFE74A4B33F8F1
:101540001500FEF71FFF42A3D3E90023FEF784FF37
:10155000FFF7BCF930610020E9E71988434B33F805
:10156000020B814206D1D1B2204602F02DFD0028A7
:10157000F1DADAE701320B2AF1D16FF01500D6E784
:10158000002A50D0062AA6D15A681046D1171A68E8
:10159000334BC3FB02010B460246B421A2FB016799
:1015A000012A01FB037773F100032CDB30482AA3E7
:1015B000D3E9002330184FF0000147EB0101FFF79A
:1015C000A9FCF52827D0B0F5FA7F26D0B0F57A7FB0
:1015D00025D0B0F5FA6F24D07D28CED10425294638
:1015E0002046E66805F0EEFA00289EDB214B33F832
:1015F0001500FEF7C7FE204B0022FEF72DFFFFF778
:1016000065F93062A7E71D48301813A3D3E900231A
:1016100047F1FF31D3E70025E1E70125DFE70225A8
:10162000DDE70325DBE71988104B33F8020B814215
:1016300004D1D1B2204605F0DAFA98E701320B2A3C
:10164000F3D19AE7AFF300803AA3950000000000C1
:1016500008AC1C5A643BAF3FD8EF2F0000000000DD
:1016600040420F009DD14A0082770000947700002D
:10167000ECF717008A770000008011401408E8FF9B
:1016800008B583683821DB689847024A136801333C
:10169000136008BD480700202DE9F04FAFB0474860
:1016A00003F0E6FB8046464803F0E2FB0746454868
:1016B00003F0DEFB0446444803F0DAFB824643486D
:1016C00003F0D6FB8346424803F0D2FB0546A0B1A7
:1016D000C668836840F201621B68112198470028A0
:1016E0000AD1336843F400333360B8F1000F07D1F7
:1016F000384801F0A9FF00E0F7DA2FB0BDE8F08F1D
:101700000FB93548F5E70CB93448F2E7BAF1000FE4
:1017100001D13348EDE7BBF1000F01D13148E8E7D3
:10172000D0230026CDE91436A368D3F80090B9F190
:10173000000F03D12C4804F0CAFADEE714AB32469E
:1017400003212046C8470028F4DBA368D3F80090A3
:10175000B9F1000F01D12548EDE714AB324607215E
:101760002046C8470028F6DB214B0B93A3689B68F3
:101770001BB1204A0BA92046984701264FF00009CB
:10178000404604F07DFA002801DA1B48B1E73846EC
:1017900004F076FA002801DA1848AAE7504604F067
:1017A0006FFA002803DA4D3001D01548A1E75846FA
:1017B00004F066FA002827DA12489AE7AA770000B0
:1017C000B1770000B9770000C1770000D177000041
:1017D000E0770000E777000004780000227800003E
:1017E00040780000667800008B780000BD7800002B
:1017F0000100030081160000E6780000097900006E
:101800002D790000597900000CAA0D21404604F002
:101810003BFA10AA1021404604F036FA12AA0E2113
:10182000384604F031FA0EAA0D21384604F02CFA9D
:1018300016AA0321204604F027FA22AA07212046EF
:1018400004F022FA1CAA0321504604F01DFA28AA2B
:101850000B21584604F018FA714801F0F5FE714862
:1018600001F0F2FE0CA8FFF723FD02460B464846A6
:10187000CDE90423FEF798FDDDE90423FEF736FCED
:10188000FFF724F881463046FFF72AF9014648461B
:10189000FFF72EFA64490490FFF732FB002800F0AE
:1018A000B3806248314601F0CFFE0120EB681B682F
:1018B0009B0348BF80F00100002800F0AD80AB68BA
:1018C000DB684FF40031284698470CA8FFF7F0FC7E
:1018D00002460B46564801F0B7FE0498FEF764FD39
:1018E00002460B46534801F0AFFE10A8FFF7E0FC9C
:1018F00002460B46504801F0A7FE12A8FFF7D8FC9D
:1019000002460B464D4801F09FFE0EA8FFF7D0FCA3
:1019100002460B464A4801F097FE16A8FFF7C8FC9E
:1019200002460B4618A8CDE90623FFF7C1FCCDE916
:1019300004011AA8FFF7BCFCDDE90423CDE902018C
:10194000CDE900233F48DDE9062301F07DFE22A812
:10195000FFF7AEFC02460B4624A8CDE90623FFF7AD
:10196000A7FCCDE9040126A8FFF7A2FCDDE90423CA
:10197000CDE90201CDE900233348DDE9062301F07A
:1019800063FE731C0693314B31481A68314601F0EF
:101990005BFE1CA8FFF78CFC02460B461EA8CDE997
:1019A0000823FFF785FCCDE9040120A8FFF780FCA0
:1019B000DDE90423CDE90201CDE900232548DDE975
:1019C000082301F041FE28A8FFF772FC02460B46EF
:1019D0002AA8CDE90823FFF76BFCCDE904012CA868
:1019E000FFF766FCDDE90423CDE90201CDE9002320
:1019F0001948DDE9082301F027FE4FF4803000216B
:101A000003F066FE069EBBE606903146134801F0E1
:101A10001BFE069B184649E7AB681B6951E700BFF0
:101A200084790000887900000000B041AC790000A2
:101A3000E57900000A7A00002F7A0000527A00004F
:101A40006E7A00008C7A0000BF7A00004807002000
:101A5000EF7A0000057B00003A7B0000C8790000A7
:101A60000B6801330B60014B1B6818470000002016
:101A7000014B1860704700BF0000002007B50B46FF
:101A8000002102460191034801A900F0EBF803B0E0
:101A90005DF804FB611A00002DE9F84FB0F81890CA
:101AA00019F00808044693460DD001290CBF49F0EF
:101AB000100949F02009A0F818908BF31188BFF3A2
:101AC0006F8FBDE8F88F09F00709022907D120467A
:101AD00004F00AF90028F0D00128238B50D167695F
:101AE000218B002F15DA256821F00701C4E9008851
:101AF00041F0010121830026218B01F0070ACA452C
:101B000002D0A368002B5CD10DB9002E74D0002345
:101B100058E001F007035A1F012A20D821F00701DD
:101B2000062B256889B2C4E900880CD1002D2B460C
:101B300038BF00232BB1628B1B6801326283002BFC
:101B4000F8D141F002012183204604F0CDF8064689
:101B50000028D1D0238B43F020032383CBE7042B31
:101B60000CD121F0070189B22183204604F0BCF892
:101B700005460028BFD041F0200121830025BAE7A7
:101B8000032809D1226923F00703166843F00603EE
:101B9000238300252F46AFE7042806D1226923F0CE
:101BA0000703566843F00403F2E7052806D12269CB
:101BB00023F00703966843F00503E9E700252E4666
:101BC000E8E7012341F0080121838BF31188BFF37B
:101BD0006F8F03BB002D33D116B121492046B0478A
:101BE0004FF02003EFF3118B83F31188BFF36F8F56
:101BF000238B23F008032383238BDA0628D523F0D5
:101C0000100323830121B4F8189009F00709002973
:101C10007FF45BAF51E7A1680029DBD00B68D1F8F6
:101C200004B0002B38BF0023994652463B4620465D
:101C3000D847B9F1000FCDD0D9F800304946EEE7CA
:101C400029463B46524620462D6804F069F8C1E714
:101C500013F020011EBF23F0200323830221D2E7CB
:101C60004D5D00002DE9F04FA5B0884603909146E8
:101C70001C46002599F8000010B9284600F015BE52
:101C800009F101032528099307D04146039B984792
:101C90000028C0F20A86013545E21822002116A864
:101CA00004F02AFC99F80130252B79D000220998FC
:101CB0001646964617469446014610F8013B2B2BD4
:101CC00000F09E8000F29580202B00F09B80232B5B
:101CD00000F09B80BCF1000F05D09DF8600040F043
:101CE00004008DF860002FB19DF8600040F00800FE
:101CF0008DF86000BEF1000F05D09DF8600040F047
:101D000010008DF860002EB19DF8600040F02000BA
:101D10008DF860002AB19DF8602042F040028DF8F5
:101D200060209DF8602002F04400442803D16FF346
:101D300086128DF860209DF860202A2B42F08002E8
:101D40008DF860207CD19DF8612042F001024B1C8F
:101D50008DF861201A782E2A9DF861200CBF012190
:101D6000002161F341028DF8612075D15A782A2A49
:101D70006BD0013300210A26184610F8012BA2F17E
:101D80003007092F40F2AA809DF860201A91C2F313
:101D9000400040EAD17161F341028DF860205BE0C0
:101DA00009F1020209928DF863309DF86130DE0777
:101DB00040F16F8154F8042B0892002A08DA9DF84C
:101DC000602042F004028DF86020089A5242089286
:101DD000580740F1668154F8047B002F80F265813A
:101DE0009DF861306FF341038DF861304FF0FF379C
:101DF0005BE12D2B0BD0302B7FF46CAF01225BE726
:101E0000012759E74FF0010E56E7012654E74FF03E
:101E1000010C51E70CFB0202303A33461E4616F81D
:101E2000010BA0F13007092FF4D9994292D09DF807
:101E300060101992D20F62F341018DF8601089E7AA
:101E40000B4600224FF00A0CE8E79DF8612042F0B3
:101E500004028DF861200233194611F8012B6C2A17
:101E60005CD040D8682A46D06A2A61D04C2A67D014
:101E700019460B4613F8012B0993782A8DF8632035
:101E800000F2DF80572A68D8412A04D0A2F1450326
:101E9000022B00F2D6809DF8623002F0DF020421AE
:101EA000A2F1410A61F30203DAF100029DF8611028
:101EB0008DF8623042EB0A0262F3C7110A068DF810
:101EC0006110CBB200F1E38003F07802182A40F0F1
:101ED000B5806FF3C6038DF861309CE006FB0121ED
:101EE0003039034648E7742A26D07A2AC0D19DF8B3
:101EF000613006220DE05A78682A9DF8612006D1EB
:101F0000012161F3C6028DF86120991CB1E71346E7
:101F1000022262F3C6038DF86130AAE75A786C2A70
:101F20009DF8612001D10421EBE713460322F0E77D
:101F30009DF861300522ECE79DF861300722E8E763
:101F4000BDF8603023F4F04323F0020343F48043F0
:101F500043F00203ADF860308BE7A2F15803202B69
:101F60006FD801A151F823F01B200000432000008E
:101F700043200000432000004320000043200000D5
:101F8000432000004320000043200000971E000073
:101F9000432000001B200000ED1F0000971E0000E2
:101FA000971E0000971E000043200000ED1F000058
:101FB0004320000043200000432000004320000095
:101FC000512000001B200000712000004320000071
:101FD0004320000071200000432000001B2000006F
:101FE00043200000432000001B2000009DF86230C9
:101FF000012161F302038DF862309DF8613003F036
:102000007803402B02BF9DF8601041F001018DF86C
:102010006010632A05D0002306E09DF8623002219B
:10202000E7E7003B18BF01239DF86020C2F34001A1
:102030000B4363F341028DF86020B6E613F0380FCE
:10204000E9D09DF8603043F001038DF86030E2E79D
:102050009DF86230032262F302038DF862309DF82E
:10206000613003F07803A3F140077B427B41DBE75B
:102070009DF86230032262F302038DF862309DF80E
:10208000613013F0780F14BF01230023CCE7012344
:10209000CAE79DF96020002AB4BF199A4FF0FF32B9
:1020A00095E699077FF5A2AE1A9F0023CDE9193373
:1020B0009DF8623003F00703042B09D19DF86130CD
:1020C0009A0705D49DF96130002BB4BF0D27062770
:1020D0009DF862309DF8611003F00703012BC1F3F6
:1020E000C30136D1CB1E042B20D8DFE803F0030751
:1020F000071F1F0054F8042BD31704E0073424F003
:102100000704F4E80223CDE916239DF86060B307C5
:1021100055D0099B03984A46414603F0F8FF002832
:10212000C0F2C3830544DDF82490A3E554F8042BE2
:1021300001294FEAE273CDE9162305D19DF8583005
:10214000169300231793E0E70229DED1BDF958204A
:10215000D2E7022B23D1CB1E042B13D8DFE803F0E8
:10216000030A0A121200226816920023201D1793F8
:102170000446CAE7073424F00700F0E80223CDE95B
:102180001623F5E754F8043B169301294FF000039A
:102190001793D3D00229B8D1BDF85830D0E7042B1B
:1021A00007D1073424F00704F4E80223CDE916230D
:1021B000ABE7032B04BF54F8043B1693A5E79DF847
:1021C0006390B9F1780FAED8B9F1570F00F2A6803D
:1021D000B9F1250F00F0EC80B9F1240FA3D9B9F1C2
:1021E000410F03D0A9F14503022B9CD8DDE916234A
:1021F000002A73F10001C0F2D381310700F1D281CE
:1022000016F0100618BF2026C3F30A5BC3F31303AE
:1022100006920793DDE90623CDE91223BBF1000FF7
:1022200040F0C281DDE90632134314BF4FF0010CC8
:102230004FF0000C0799CB020699CA0243EA5153AA
:1022400058464BEA02010C91C11719430D91DDE983
:102250000C01B9F1460F08BF4FF066090143CDE903
:10226000122300F01482BCF1000F40F0D481129BC5
:102270000493139B43F000430593DDE90423CDE968
:1022800012230023ABF2FE3B1A4605211BF1020F7D
:10229000C0F2CA811BB1DDE90401CDE91201BBF135
:1022A000000FDDE9123100F3DA811399129BCBF1B3
:1022B00004000BF11C0B01FA0BFBA0F1200CC34036
:1022C00021FA0CFC43EA0B0343EA0C03C140CDE9BD
:1022D000123109F0DF03472B40F0E081D01C02DB14
:1022E000974280F2D781A9F10209002F5FFA89F99C
:1022F00000DD013F9DF86030990600F1CF81002F8D
:10230000D4BF00230123B9F1660F0E9340F0C881BA
:10231000BB1840F1C6814FF0000AC6E1A9F158038D
:10232000202B3FF600AF01A252F823F04125000018
:10233000272100002721000027210000272100007D
:10234000272100002721000027210000272100006D
:10235000ED21000027210000DD230000E124000022
:10236000ED210000ED210000ED21000027210000FB
:10237000E124000027210000272100002721000080
:102380002721000077250000412500004525000099
:102390002721000027210000B7230000272100008B
:1023A00041250000272100002721000041250000D1
:1023B000414648466AE4002FDDF858900ADB39466A
:1023C000484604F059F809EB000A0026B9F1000F5D
:1023D0000CD1A8E6484604F048F8F4E7169B8DF8BF
:1023E000743000260DF1750A0DF17409AAEB09028B
:1023F00006B101329DF86200C30640F14B82023201
:102400001999089B40060A4444BF1A995218002B98
:1024100025DD9B1A9DF860205107C2F3800B00F167
:102420004B82570640F14482002E00F0438208930D
:102430004146039B304698470028C0F23682089BED
:1024400001355E463027089303EB050B089BABEB89
:102450000305002B03F1FF33089300F31F823EB105
:10246000039B4146304698470028C0F21E82013542
:102470009DF86220560640F17D829DF96120002A78
:10248000C0F21C82A5EB090599F80000A0F130020A
:10249000092A4F4605EB090B09F1010940F23E827A
:1024A0009DF86220199E900608D406EB0B09002EB9
:1024B000A9EB060B06F1FF3600F3378238782E2899
:1024C0000BD1039B414698470028C0F2EE81002EB5
:1024D0000BF1010B00F331820137ABEB070B37E255
:1024E00030072BD416F0100618BF2026DDE916237E
:1024F000002A73F1000105DA524263EB4303CDE990
:1025000016232D260DF18D030093DDE916011DAB79
:1025100018AA03F0B1FD8146002F0DF18D030BDBEE
:102520009DF86010A3EB09026FF3861197428DF8B6
:10253000601001D9BF1A19979A4647E72B26D5E7AD
:102540000026DFE71698002800F09E810DF18D032C
:10255000009318AA1DAB002103F08EFDBDF8623078
:1025600003F0EF0343F4F04343F010038146ADF86A
:1025700062300026D0E7169B07293FF6D4ADDFE88E
:1025800001F00D04060D08080D0D1D70CBE51D8032
:10259000C9E52846E917C3E90001C4E51D60C2E5A5
:1025A0002D2631E62B262FE640F2FF739B452DD1D9
:1025B000DDE906231343A9F1410918D1B9F1190F37
:1025C00095BF44F6496346F66963ADF87430ADF8DB
:1025D000743094BF462366238DF876309DF86030C2
:1025E0006FF386138DF860300DF1770AFCE6B9F1D0
:1025F000190F95BF44F24E1346F26E13ADF87430C6
:10260000ADF8743094BF4E236E23E5E74FF0000C15
:1026100010E60BF1FF3B92185B41002A73F10001B9
:10262000F7DACDE9122322E6049B05985B0843EA1A
:10263000C0734008B0F1333FDC46CDE904300BF104
:10264000010BF1D2A3FB01ABCDE904AB059B4843E1
:10265000C31805930CF1020B013A012316E602336D
:1026600041F1000112A8CDE912310E9203F0CDFC28
:102670000E9ADDE912010BF1FF3B013200184941CE
:10268000002871F100030BF1FF3BF7DA05E60022A9
:1026900093460AE6BF1A4FF066092BE6002332E69E
:1026A0007B1C102BA8BF10239A46102111910020EB
:1026B0004FF00061CDE914010AF1FF3ABAF1FF3F92
:1026C000DDE914101FD1129BCB180A93139B40EB2A
:1026D00003030B93DDE90AAB6FF070414FF0FF305D
:1026E000594508BF50451AD350465946CDE9120105
:1026F000B9F1660F53D1002A20DC30238DF87430F5
:102700000DF1750A2BE0490841EAC0714008CDE996
:10271000141014A80F9203F078FC0F9ACCE70A9BD0
:102720000F920B9A5B0843EAC273510812A8CDE9D5
:10273000123103F06AFC0F9A0132D9E70DF1740AE5
:102740001199002909DD11A912A80F9203F07DFC4F
:102750000F9A0AF8010B013AF2D1199200229DF862
:102760006010880601D4002F3FDD53462E2103F868
:10277000011B92B1002F75DD5142B942A8BF394605
:102780009DF8620019910029A7EB0107D4BF002131
:10279000012161F345108DF862009A4620E011A9ED
:1027A00012A80F9203F051FC0F9A9DF860308DF83B
:1027B0007400302818BF02F1FF32990601D4002FAF
:1027C00052DD2E238DF875300DF17603E5E711A962
:1027D00012A80F9203F039FC0F9A0AF8010B013F7F
:1027E000002F02DD11990029F1DC0E9B002B3ED158
:1027F0001A9709F0DF01452922D1002A5046BABFB5
:1028000052422D212B21632A00F8029B8AF80110E5
:102810000ADD642792FBF7F101F1300C0AF10300A5
:102820008AF802C007FB11220A27824692FBF7F1C1
:1028300007FB112201F1300C30320AF802CB427052
:10284000199A002A1EDC1A9A002AD4BF00220122FB
:102850009DF8621062F3861100228DF862108AF8EA
:102860000020C1E59A46C0E70DF1750ABDE70021D9
:102870001A9150461AF8011D3029FAD02E2918BF96
:102880008246B6E70122E3E7DFF838A10646AAF15F
:102890000509ABE5070748BF0132B1E5039B414697
:1028A000384698470028BFF6D1AD25B0BDE8F08F77
:1028B0002027C8E53027C6E50893D0E5A5EB090B2E
:1028C0004E460BEB090519F8010B702820D11A9A16
:1028D00002EB0509A9EB0502002A43DC5346324608
:1028E0000398414603F013FC0028DEDB089B2844D4
:1028F000034405469A46AAEB0503002B7FF713AC69
:10290000039B4146202098470028CEDB0135F2E7A3
:10291000039B414698470028D2DAC6E7039B41460D
:1029200098470028BFF6B0ADBFE7039B4146302073
:1029300098470028BFF6BBADB7E7039B4146302060
:102940009847013EC0E5039B414698470028ACDB11
:102950003E460BEB070517F8010BA0F13002092AE0
:10296000F1D9B4E7039B41463020984700289CDB0F
:102970000135AFE7D10601D4120706D5039B4146C6
:1029800030209847002890DB01359DF86220D3065F
:1029900007D59DF86300039B41469847002884DBD8
:1029A0000135199E2E44721B002A02DC53464A460A
:1029B00096E7039B4146302098470028FFF675AF05
:1029C0000135F0E7737B000010B50748074C02F0B3
:1029D0004FFA074B1860204600F024FE2046FFF710
:1029E00047F8002010BD00BF747B0000F5290000EF
:1029F0004C0700200A2838B5074D044604D1286842
:102A000083680D215B68984728688368E1B25B683A
:102A10009847204638BD00BF4C0700200E4A70B5CD
:102A2000841AA3100D4C5C430546E4B20C2000FB55
:102A300004200E464021084403F089FB011E05DBFB
:102A4000074B03EBC40463689847002128463346CC
:102A5000BDE87040184700BF60070020B76DDBB6C7
:102A6000CC7500002DE9F041104E841BA310104CD2
:102A70005C43E4B20C256543804605F140000F46F7
:102A80003044402103F07CFB011E09DB094A731925
:102A9000C3E90E27084B53F83430BDE8F04118471E
:102AA00040463B46BDE8F041184700BF60070020A4
:102AB000B76DDBB6E3610000CC750000002270B595
:102AC00001210446104600F0E3FA002000F0C2FAAB
:102AD0000F4801F069FE0F4B984215D104F0A1FA9E
:102AE000E6680D49304603F04EF900280BDB01255E
:102AF0003564E468084904F11C0003F044F9002837
:102B000001DBE564002070BD6FF00400FBE700BF4F
:102B1000512B00000000AD0BDC75000001460C23BA
:102B200009484B4370B5C418D4E90E56002240330F
:102B3000A263184403F042FB2DB132462B460348F2
:102B4000BDE87040184770BD60070020600000209D
:102B500010B1012804D07047034B1B6C5B0701D1F7
:102B6000FFF7DCBF704700BF6007002008B54FF0DB
:102B70002003EFF3118183F31188BFF36F8F124AA3
:102B8000136843F0020013F0010310600CD04FF003
:102B90008042D2F80C34D2F80C2413F0010303D095
:102BA0000A4803F00BFB012381F31188BFF36F8FF9
:102BB00023B1BDE808400020FFF7B0BFBDE80840E2
:102BC000012001F001BE00BFB0070020A0070020D7
:102BD00010B5074C23782BB94FF4A57004F0BBFB5C
:102BE00001232370BDE81040002001F0EDBD00BFBF
:102BF00084090020094BBFF35B8F53E8002F22F0BC
:102C0000020143E800100028F7D1BFF35B8FD30720
:102C100002D4012001F024BE704700BFB00700209D
:102C20001FB500220123CDE90223094ACDF800D0C7
:102C30006B46CDF804D003F0F7FA002805DB4FF41B
:102C400080420023684602F08BFD05B05DF804FB6E
:102C5000FB6100002DE9F8433A49BFF35B8F06465C
:102C6000012251E8003F41E800200028F9D1BFF3DC
:102C70005B8F33B9344935484B60CB608A6003F0D1
:102C800095F8731E012B32D8012E07D14FF08043E7
:102C9000D3F81C3403F00303012B28D004F055FBB8
:102CA000044618B92A4B1B78002B44D14FF020035F
:102CB000EFF3118583F31188BFF36F8F0124254F44
:102CC000DFF89480DFF894904FF08042D2F8183407
:102CD000D2F81824D2030CD503F00303012B01D042
:102CE000012E06D10CB385F31188BFF36F8FBDE8B9
:102CF000F883ACB1284600F047FA4FF08042D2F892
:102D00001835002BE0D139680029DDD03B603B68E5
:102D10000123C2F81835C8F88031C9F80030D3E76C
:102D20000021212002F0D4FCE7E74FF0804302228B
:102D3000C3F80423DBE74FF080430222C3F80823E3
:102D40000546BCE7B4070020500700207C070020A0
:102D5000970D00200401004000E100E00800004061
:102D6000044A1368C81A20F07F400344136002F03D
:102D7000EFBE00BFC40700202DE9F047860006F132
:102D8000804600F1500406F58836A400DFF87C8008
:102D9000D6F84035A4B204F180444FF4803721F0D6
:102DA0007F4504F588348740C146D8F804A5A3EBD5
:102DB0000A0323F07F432AF07F42012BC6F8402507
:102DC00002D1132004F0C7FA0AF10202AB1A23F071
:102DD0007F43B3F5000F88BF1546002323602368A7
:102DE000C9F8447325F07F43C6F84035D9F8043557
:102DF0009A4506D0EB1A023B23F07F43B3F5000F50
:102E000001D8BDE8F0872B46CFE700BF0010014096
:102E1000F8B5104E104F0025104B00201C681A46C4
:102E200005B1F8BDD6F80413C903FAD539680029ED
:102E3000F7D03D6039684FF48031C6F84813D6F8B2
:102E4000401501251CB15A681860A047E4E71460DA
:102E5000E7E700BF0010014040110140B807002023
:102E600038B5104D00244FF48033C5F80845C5F837
:102E700004330D4B4FF40032C3F880210121224668
:102E8000112000F005F9112000F0E4F8074A0123B1
:102E90001360074A2B6002201360FFF7DBFE204619
:102EA00038BD00BF0010014000E100E00810014003
:102EB000C0070020134BB0F1FF3F08BF1846013890
:102EC00000281CDD9842A8BF18460F4BD3F80425F4
:102ED0000E4B1968521A12F4000F22F07F4318BFEC
:102EE00000200B4A013303440A4810600020506060
:102EF000044A934294BFC9188918FFF73DBF0020C8
:102F0000E3E700BFFFFF7F0000100140C40700207F
:102F1000B8070020612D00004FF02002EFF311836D
:102F200082F31188BFF36F8F064AD2F80405064A70
:102F30001268801A20F07F4083F31188BFF36F8FEF
:102F4000704700BF00100140C407002010B5114CAD
:102F5000114AA2610323C4E90433104BE3612266E2
:102F60004FF480630E4A0F492362626600231022E9
:102F7000E01DA3626362E3622367E3666367A266A0
:102F800003F069FA0849204603F065FA2023A3718B
:102F900010BD00BFC80700208B7B000095090020F2
:102FA00085090020947B0000987B0000094A0A49AB
:102FB00093680968D967094998674B6843F080535B
:102FC0004B60002383F31188BFF36F8F9368D86F32
:102FD000704700BF400900206877000000ED00E066
:102FE00012498A684FF038001044EFF3098C80E8EA
:102FF000F01F202080F31188BFF36F8F0C4F4FF02C
:1030000000668A6A8A603E60906F0023936780F34F
:10301000118804B5104600F055FABDE8044002F1ED
:10302000380090E8F01F8CF30988704740090020B1
:1030300004ED00E01EF0040F0CBFEFF30880EFF387
:103040000980816911F8021C0229FFD001B503F043
:10305000F7F901BD43B2002B08DB012200F01F008D
:1030600002FA00F05B09024A42F82300704700BFF1
:1030700000E100E0054B420900F01F0053F8222058
:10308000012303FA00F01040704700BF00E100E0A8
:1030900043B2002BA8BF03F1604301F10101B8BFA7
:1030A000064B4FEA4111ACBF03F5614300F00F003E
:1030B000C9B2B4BF195483F80013704714ED00E08F
:1030C00042F8203C009B42F81C3C0A49019B42F814
:1030D000183C029B42F8143C21F001014FF0807330
:1030E00042F8043C42F8081C0023203A82658367BA
:1030F000704700BF3F5E00000B4A0346906890B1E6
:1031000013F1160F806E05D0A0F120029A4206D866
:10311000834204D281422CBF0021012100E0002122
:10312000002908BF002070474009002008B5044668
:103130000E46154600F0BAF9084B20469C6000F098
:10314000C1F9284686F30988002163B681F3118806
:10315000BFF36F8F0022002302F071FE40090020B0
:10316000014910220A60704710ED00E072B640403D
:1031700080F31188BFF36F8FBFF34F8F30BF62B6FC
:10318000BFF36F8F704700BF72B6494081F311885B
:1031900020BF80F3118862B6704700BF30BFFFF7D1
:1031A000FDBF00BF0E4A08B50E4B22F07F029A60A9
:1031B000BFF34F8FBFF36F8FD3F8882022F47002D4
:1031C000C3F88820EFF3148323F0040383F31488F7
:1031D00001F0A6FE02F0CAFB00F03AF901F0C4FECD
:1031E0000000000000ED00E001B572B60B4A506A25
:1031F00000281EBF0021516203F0EDFF62B6EFF31D
:103200000580A0F110004FEAC0000549014409C93A
:103210009847BDE8014003490847000040090020E5
:10322000787400003534000003F08EF9202080F31C
:10323000118808484FF40261401880F30988EFF3C1
:1032400014800221084380F31488BFF36F8FFFF7C7
:10325000A9FF000020130020EFF30880EFF309819D
:1032600001B5724600F068F801BD00BF38B5194BD2
:1032700014469A6A9A6A9A6A0546900719D5586B55
:103280009A6A120615D519B19A6A22F080029A62DA
:103290009A6A9A6A9A6AD1060ED49B6A9A070BD4E4
:1032A00000200C4A936A43F0FF03936200232370CB
:1032B00038BD6FF01500EBE7064B5B681B05EFD5DB
:1032C0002946FFF719FF0028EAD080F30988022079
:1032D000E7E700BF00ED00E00D4B9A6A9A6A9A6A30
:1032E000920508D59A6B9A6A120404D518B19A6AA5
:1032F00022F400429A62064B9A6A9A6AD20558BF33
:103300009A6A9A6A002042F47F429A620870704773
:1033100000ED00E0074B9A6A9A6A9A6A9A6A9A6A7A
:103320009A6A9A6A6FEA02426FEA12429A6200202F
:10333000704700BF00ED00E070B5374B5B688AB0A6
:103340000E46C3F30803002585F31188BFF36F8F82
:1033500002F07F41B1F17F4F11D102F00C01082939
:103360000DD0110701D4064601250022033B8DF83C
:103370000720032B48D8DFE803F0043F433C2E46E8
:10338000F3E7254BDA6A92073ED4DC6A14F08044F6
:1033900009D028331B78F3B10DF107020121304623
:1033A000FFF764FF04469DF8073093B920223146A9
:1033B00002A803F076F8099B45B3C3F3080222B9CB
:1033C0006FEA53236FEA4323099302A9204603F0CF
:1033D00035F80AB070BD114B1B782BB10DF1070108
:1033E0000120FFF779FFDDE70D4B188884B2002C30
:1033F000D9D0FFF78FFFD5E70DF107020021CEE707
:103400000DF107010020ECE70024CCE723F4FF7363
:1034100023F00103D8E700BF00ED00E029ED00E054
:103420002AED00E0024A536943F0100353617047EC
:1034300000ED00E0044B9968986A884203D0034984
:103440004FF080520A6070474009002004ED00E010
:10345000044800232021C2180133272B82F80013CF
:10346000F9D1704700E100E008B50E4B9B6883423C
:1034700007D1EFF3058393B10B4A536843F08053B0
:10348000536001F0BBFF4FF02003EFF3118083F393
:103490001188BFF36F8FBDE8084003F09EBE02F0B5
:1034A00045FA00BF4009002000ED00E0024B034A4E
:1034B0000348012100F096B8000001200000002020
:1034C000E8750000826E054B203A1A60044A2021FC
:1034D000C3E901121846012100F08EB870080020DF
:1034E00000000B15F0B51E4F00268E4201DB104682
:1034F000F0BD446884B353B104F1FF3C14EA0C0FEF
:1035000018D11F2C16D905681CEA050F12D1202CE2
:103510000568D0F808C0D2B20FD9B4F1004F0ED868
:10352000013CB4FA84F4C4F11F046400072A4CEA95
:10353000040406D96FF01502D9E70824F6E73E2403
:10354000F4E725F01F05154345F0100544F001048C
:10355000BA60FD6001323C6101360C30C5E700BF46
:1035600090ED00E0034B05225A60BFF34F8FBFF38D
:103570006F8F704790ED00E0BFF35F8F014B00222B
:103580005A60704790ED00E013490868082810B5AC
:103590001ED8FFF7F1FF114C49680022904201F15B
:1035A0000C0105D10E4B1870FFF7DCFF002010BD99
:1035B000A26051F80C3C23F01F03134343F01003A7
:1035C000E36051F8043C43F0010323610132E5E775
:1035D0004FF0FF30EBE700BFF475000090ED00E026
:1035E000950D002010B5034C01232278FFF77AFFD8
:1035F000207010BD950D002008B5084A00231278F0
:10360000FFF770FF10F1160F03D0054B00220728BB
:1036100000DD08BD98601A610130F8E7950D0020C3
:1036200090ED00E0014B1860704700BF04000020DF
:103630000239012902D8034B1B6818474FF0FF30AD
:10364000704700BF040000200FB407B504AB02218F
:1036500053F8042B04480193FEF704FB03B05DF814
:1036600004EB04B0704700BF456500004FF0200335
:10367000EFF3118283F31188BFF36F8F06490123A3
:10368000C1F840354FF08041C1F8783582F3118898
:10369000BFF36F8F0020704700E0014020B1034B63
:1036A000800143F001031847704700BFB075000068
:1036B00008B5094B1A786AB901211970062005214D
:1036C000FFF7E6FC0620FFF7C5FC044B4FF0004275
:1036D000C3F80423002008BD960D002000600040C0
:1036E0002A4B70B546682A48134083423ED00DD815
:1036F000062B15D005D89BB1022B39D06FF01500E1
:1037000033E0B3F5801FF9D1012309E0214883425A
:1037100030D0B3F5A00F2FD0B3F5800FEED1022338
:10372000D00654BFC2F34015032582F4807412F40E
:10373000007FC2F34020C4F3002407D012F4006FCE
:1037400076681BD001228A40C6F8082540EA440268
:1037500001F01F0142EA032301F5E0714FF0A0429E
:1037600043EA850342F82130002070BD0723D7E7E4
:103770000423D5E70523D3E70323D1E7520542BF4E
:1037800001228A40C6F80C25E0E700BF0600F000E1
:103790000600100002004000F8B50C464168C668FB
:1037A000087A04F01F05B2F5A03F45EA40150CD198
:1037B00005F01F0101F5E0714FF0A04050F8211015
:1037C000CF0707D56FF02200BDE0B2F5005FF168CA
:1037D00000F0AA80F0680121A14001437069F16006
:1037E0000121A140B2F5A03FB2690CBF0843884354
:1037F000B3F5C02F0CBF0A438A43B26132697061CE
:10380000B3F5802F0CBF114322EA0101544A316104
:10381000D2F804130023C9B203F5A27052F82000B5
:10382000C0F30420854240F0848021FA03F0C007F1
:103830007FD5012199404B48BFF35B8FCF4350E8C0
:1038400000CF0CEA070C40E800CEBEF1000FF6D125
:10385000BFF35B8F9B0003F1804303F5C043D3F8B4
:10386000100520F00100C3F81005C2F8081300216C
:10387000284602F06BFEF368E34013F0010351D0D9
:103880007369E34013F001025ED0B369E340DB07E4
:103890005FBF316921FA04F404F00104C4F10204A9
:1038A000304954BFE4B203240022012707FA02F68C
:1038B000BFF35B8F51E8000F40EA060341E8003C8C
:1038C000BCF1000FF6D1BFF35B8FD04010F00103C5
:1038D00034D1910001F1804101F5C0414032D1F86D
:1038E000100520F4473020F440709200C1F8100514
:1038F0002D0292B2D1F8100505F4F85502F180427C
:1039000002F5C04245EA04450543C1F8105513606D
:103910001268D1F8102542F00102C1F81025104AB2
:10392000C2F8046318460EE00120A04021EA00011D
:1039300054E70133082B7FF46FAF98E70132082A70
:10394000B4D16FF01200F8BD3169E14001F001011E
:10395000C1F103012846C9B202F0F8FD1046F2E7B2
:1039600000600040980800202DE9F0413F4D2E688E
:10397000002E4ED03E4BD3E90510DA681B69014397
:1039800022EA01024FF0A0410127D1F810455C4026
:1039900022EA04044FF0000872BB2A602B68354805
:1039A000002301251F46D0F8042305FA03F1114234
:1039B00011D09A0002F1804202F5C242116851B161
:1039C00003F5A27150F821101760C1F3042105FA24
:1039D00001F112680C430133082BE4D1DCB94EB17C
:1039E000234CD4E90510E268014322EA01020125D3
:1039F000002642BBBDE8F0813A4206D0002108F023
:103A00001F0002F0A3FD22EA070208F101087F006F
:103A1000C2E73446C3E7164B59680029DFD00D686A
:103A2000154F002D38BF00258A68224002D04B6810
:103A300038469847002DD2D02B68002B38BF002382
:103A400029461D46F0E715420CD02169F14001F0EE
:103A50000101C1F10301C9B206F01F0002F076FDB9
:103A600022EA050201366D00C3E700BF7C61004019
:103A70007C080020006000409000002010B5044643
:103A8000002201210320FFF703FB6068E368064A78
:103A900000F1080101F072F8044B984214BF6FF076
:103AA0000F00002010BD00BFB13A00000000AD0BB8
:103AB0000378012B08D0022B08D04BB9054B0B62C1
:103AC00001F1100001F02CBE034BF8E7034BF6E7C1
:103AD000034BF4E70000AD0B0100AE0B0200AE0B90
:103AE0000100AD0B2DE9F04F044687B00D46174697
:103AF0009946C0684FF0FF324FF0FF3301F030FEBF
:103B0000E06810300022002301F02AFE6068DFF830
:103B1000B8A001F07BF84FF00008B84501D30025AC
:103B200029E095F808B01BF0080644D1142231466C
:103B300001A802F0E1FC6A6802920BF001032A6816
:103B40008DF804301BF0020F8DF8059004921CD103
:103B50007A1E424502D92A7D520718D55BBB202226
:103B6000606801A901F07CF8504512D0154B9842CD
:103B700024D06FF00405606801F058F8E06801F0A7
:103B8000CFFD284607B0BDE8F08F3246E8E7402277
:103B9000E6E7E06810304FF48042002301F0E0FDDA
:103BA0000028E6D1E3681B6A534505F10C05E0D116
:103BB00008F10108B1E76FF02205DCE76FF00F05AF
:103BC000D9E700BF0B00AD0B0000AD0B0D2970B5A0
:103BD000C06820D145898389B0F91260B0F914100A
:103BE0005C1BB0F906309B1B891B634393FBF1F30D
:103BF0002B44002B1946B8BFD91DC910116059427A
:103C000001F0070103F0070358BF4B4211494B4332
:103C10005360002070BD102919D1057A437AB0F99C
:103C20000E60B0F910105C1BB0F904309B1B891BAF
:103C3000634393FBF1F32B4403EBD3714910002B47
:103C400003F001031160B8BF5B420349DFE76FF087
:103C50002200DFE748E8010020A107002DE9F0413C
:103C60004668C76805468CB0306801F001F93860D5
:103C700010B96FF015001CE00F218DF806100DF142
:103C80000601B3880691002101248DF820100DF162
:103C90000501CDE90914072107948DF82C108268DD
:103CA00006A9D2F804800222C047002804DA6FF087
:103CB00004000CB0BDE8F0819DF80530BC2BD8D1D4
:103CC0003C49084602F0E1FB68B13A493A4802F043
:103CD000DCFB38B13749394802F0D7FB0028C8D19E
:103CE000032400E002243868B3880227202264F00D
:103CF0007B0402AE8DF808208DF8094006960797E0
:103D00008DF82070826806A954680122A047002817
:103D1000CDDB0021632001F0DBFCEC686B682068E0
:103D20009B880996B0228DF807200DF107020692B4
:103D300001220792102200250A9207228DF82050B6
:103D40008DF82C20826806A956683A46B047A842EA
:103D50008FDBBDF8083023819DF80D301A0202F484
:103D600040719DF80A200A4362819DF80B209B0157
:103D700003F440731343A3819DF80F209DF80E3088
:103D800043EA0223E3819DF813209DF8123043EAB1
:103D9000022323829DF815209DF8143043EA022364
:103DA00063829DF817209DF8163043EA0223A38210
:103DB00028467EE7AF770000B47B0000B67B0000AA
:103DC000032970B5C4681CD80F4B10485B56465683
:103DD0000F4DB34202F1080201DD002070BD191D34
:103DE00004EB41010133B1F901002169001148439D
:103DF00090FBF5F142F8081C05FB110142F8041C88
:103E0000E7E76FF02200E9E7BB7B0000BF7B000023
:103E100040420F007FB54668C5680446306801F02F
:103E200027F8286018B96FF0150004B070BD7368EA
:103E3000204698476B680DF107029B680F212046CA
:103E400098470028F1DB9DF80730332BEBD1B37A8C
:103E50005BB11D4B44F6161242F28B41C3E90012CE
:103E60001A4A49F22D20C3E90202F37A13BB062253
:103E7000002102A802F040FB07238DF808306B6890
:103E800002AA5E68202106232046B0470028CCDB2A
:103E90000D4B1B682B616B680022DB6823212046D9
:103EA00098470028C1DB6B684722DB682021204649
:103EB0009847BAE76B681E6980231A461E21204680
:103EC000B0470028D3DAB0E73000002094B60100F4
:103ED000C368024A5A600020704700BFAC760000F9
:103EE0000B29F0B504D8072911D86FF02200F0BDD6
:103EF0000C29FAD1C3681869642190FBF1F31360AF
:103F000001FB130342F210714B43536010E00B2985
:103F100018BF0839C4680E4E19BFC9B20D46022534
:103F200000210A3440F2DC57A94202F1080201DD07
:103F30000020DCE734F8113013FB07F090FBF6F3B8
:103F400042F8083C06FB130342F8043C0131EBE75E
:103F500040420F00C368054ADA611A46044942F834
:103F6000181F00205A611B62704700BFAF69000034
:103F7000E96900000E2930B5C36811D15968114BA9
:103F80000D130A24C1F30B0195FBF4F0106004FB40
:103F900010505943434303EB11335360002030BDAD
:103FA0000D290CD1B3F90800642190FBF1F31360E3
:103FB00001FB130342F2107113FB01F3EDE76FF005
:103FC0002200ECE7A086010070B5C5686A6A0B01A3
:103FD000D6680C4603F0F003F0221021B047002809
:103FE00009DB0A2C96BF054B41F6042333F8143045
:103FF0002B85002070BD6FF00400FBE79477000074
:10400000F7B54568C6680446286800F031FF30609F
:1040100000285BD06B6820469847E5686B6ADE68CD
:1040200080231A4612212046B047002803DA6FF099
:10403000040003B0F0BD48F6B80003F08CF96B6AD9
:104040000DF107029B680F21204698470028EEDB00
:104050009DF807306A2BEAD10021204602F09FFD2F
:104060000028E4DB00261B4B2B612E8531462046C1
:10407000FFF7AAFFB042DADB0421204602F0A2FDDE
:10408000B042D4DB144B2B62AE853146204602F0A1
:10409000AEFDB042CBDB6B6A0722DF680A213346F4
:1040A0002046B847B042C2DB6B6A4622DD68122167
:1040B00044232046A847B042B9DB204600F016F85A
:1040C000B042ACBF30466FF00400B2E76FF01500AD
:1040D000AFE700BF23DB793D00008C40C368024A94
:1040E0005A620020704700BF287700002DE9F04F8A
:1040F000D0F80480C568064689B0D8F80C0000F0F6
:10410000B7FE04466863002871D0D8F8143098F8D8
:1041100010B0DA04D0E902A943F4807706D513F48D
:10412000406F03D0D80748BF87F4E057A3683A46EA
:104130001B68594620469847B0B9D9F8003001228B
:10414000F90702FA0BF24CBF1343934317F4C04F25
:10415000C9F8003008D0DAF818302BB127F4002263
:104160005946204602F08BFED8F810302148012233
:1041700002FA03F3C5E90F03686B8368DB6905F195
:10418000380123B96FF0040009B0BDE8F08F9847FB
:104190000028F7DB6B6ADC6803231A460D213046E2
:1041A000A0470028EEDB2E634FF0FF32002105F51B
:1041B000A06003F0BEF800220023CDE9062300240E
:1041C0006FF00503CDE903344FF4806205F160011F
:1041D000CDE90144084B009505F5906001F01CFB0A
:1041E00098F81010686B4FF4B82202F05CFE20467D
:1041F000CAE700BFDF6E0000AB6E000070B54B7900
:10420000012B23D18B79032B20D1CA7922B1012A2A
:104210001CD143681B79CBB10C7914B1022C15D198
:104220000E240B684568B3F5164F2D6862D02BD865
:10423000B3F5165F61D014D8B3F5966F5FD008D888
:10424000B3F5967F5ED0B3F5167F5ED06FF0220097
:104250004FE0B3F5166F5BD0B3F5965FF6D1374BF1
:104260003CE0B3F5E14F56D007D8B3F5615F54D0C9
:10427000B3F5964FEAD1324B30E047F61226B342FF
:10428000E4D14FF4000329E0B3F5613F47D013D8E0
:10429000B3F5963F46D009D84DF6C026B34243D079
:1042A000B3F5614FD2D14FF46B0317E0B3F5E13FA3
:1042B000CCD14FF0EB7311E0B3F5612F37D008D8B4
:1042C000204EB34236D0B3F5E12FBFD14FF0E863B3
:1042D00004E01D4EB342B9D14FF08053C5F82435E8
:1042E000C36803C922430433C5F86C2583E803007F
:1042F000002070BD4FF41D03F0E7144BEEE74FF4C0
:104300009E23EBE74FF4A033E8E74FF41C33E5E7D7
:104310004FF41D23E2E70E4BE0E70E4BDEE74FF0D4
:104320006C73DBE70C4BD9E74FF46503D6E74FF02E
:104330007063D3E74FF08063D0E700BF00B0130095
:1043400000A04E0090D0030040420F000050270014
:1043500000C0750000F03A0000903A012DE9F041EC
:10436000C7680646884602F0F0FFB8B9284B1B78AC
:1043700083F001037268156893B14FF02003EFF3E7
:10438000118483F31188BFF36F8F304602F024FE4F
:1043900038BB84F31188BFF36F8FEEE70123E9E7A1
:1043A0006424304602F018FE70B9012002F037FE96
:1043B000013CF6D10021212001F08AF9F0E784F3D5
:1043C0001188BFF36F8FF5E74FF02003EFF31184EF
:1043D00083F31188BFF36F8F304602F0FDFD002894
:1043E000EDD007F8108F01230022C5F84475C5F8F9
:1043F0004835C5F82021D5F82011C5F85821D5F841
:104400005821AB6084F31188BFF36F8FBDE8F08152
:10441000970D0020F8B50022054601210220FEF785
:1044200037FE0220FEF716FE6B68EE681C684FF040
:10443000A04300224021C4F8002506203560C3F8BF
:1044400008150321C3F81817C3F82027C4F80C0572
:104450000820C4F81405C3F81C272022C3F8082537
:10446000C3F81417E9680523C4F808350723C4F80E
:10447000103504312846FFF7C1FE074600283CD11D
:104480006B689B79CBB106F1120000F063FA1D4B0B
:10449000984234D1B07CC30003F1804303F5F83374
:1044A00004F10C0204F59071C3F81015C3F814253B
:1044B000154A01238340C2F804350823C4F80035A7
:1044C0000023C4F81031D4F8103106F11103C4F8F8
:1044D00034350123C4F8383523606B689B791BB9E8
:1044E0004FF48073C4F8043300231036C4F84465D5
:1044F000C4F848350123A360E3603846F8BD6FF087
:104500000407FAE70000AD0B00F00140044B186807
:10451000421C04BF034B1878831F58425841704710
:1045200030010010E00F00F0074B1B78062B09D17B
:10453000064B1B68C3F30313033B032B02D8044A47
:10454000D05C704700207047E00F00F0E80F00F0EB
:10455000CB7B0000024AD2F80034002BFBD070471E
:1045600000E0014010B5FFF7D1FF28B1774B784A42
:104570001B68C3F304231360FFF7D6FF10B1754B1C
:10458000754A1A60FFF7C2FF28B1744B744A1B6862
:10459000C3F342331360FFF7C7FF20B1714AD368FA
:1045A00023F08073D360FFF7B1FF40B14FF0804339
:1045B0000022C3F80C21C3F81021C3F83825FFF7F7
:1045C000B3FF10B1684B03221A60FFF7ADFF40B193
:1045D000664B05221A6001229A6700229A603F22E8
:1045E0005A60634B1A68511C0BBF624B624B1A78BE
:1045F0001B6802BF08331B68C3F30313062A4DD19F
:10460000033B032B03D85D4AD35C002B46D04FF00D
:1046100080525B4BD2F80414C3F82015D2F808146A
:10462000C3F82415D2F80C14C3F82815D2F81014C6
:10463000C3F82C15D2F81414C3F83015D2F8181496
:10464000C3F83415D2F81C14C3F84015D2F820145E
:10465000C3F84415D2F82414C3F84815D2F8281426
:10466000C3F84C15D2F82C14C3F85015D2F83014F6
:10467000C3F85415D2F83414C3F86015D2F83814BE
:10468000C3F86415D2F83C14C3F86815D2F8401486
:10469000C3F86C15D2F84424C3F87025FFF736FF31
:1046A00028B1384B384A1B6803F04F031360FFF7FB
:1046B0002DFF48B14FF08043D3F80024D20744BF08
:1046C0006FF00102C3F80024294B1B68062B0CD1A4
:1046D000294B1B68033B032B02D82C4AD35C23B124
:1046E0002B4A136843F4806313604FF01023D3F810
:1046F0000022002A03DBD3F80432002B22DA2549FA
:104700000123C1F80435FFF725FF4FF010201524D1
:10471000C0F80042FFF71EFFC0F80442FFF71AFF7F
:104720000023C1F80435FFF715FFBFF34F8F1A4977
:104730001A4BCA6802F4E0621343CB60BFF34F8F99
:1047400000BFFDE7164B174A1A6010BD2403001086
:104750004035014074C007400DF0ADBA440200106E
:104760003C050040F0ED00E0A00500401056004080
:1047700030010010E00F00F034010010C37B000096
:1047800000C0004058020010E40E0040C77B00004B
:104790003C17004000E0014000ED00E00400FA0595
:1047A000540000200090D003044B1A7922B9012252
:1047B00018609A800248704702487047F808002045
:1047C0000000AD0B0C00AD0B30B510B1012833D09B
:1047D00030BD4FF08043D3F81824D3F8181411F4E7
:1047E000803F194624D002F00302012A20D1C3F8E9
:1047F0001825164B00221A601B684FF080430222D6
:10480000C3F80423124AD06840F08073D360114B80
:104810001C6844F0010119605D685968491BB1F5D5
:104820000A5FFAD31C600C4BD06001221A60CFE7FC
:104830000023C1F81835DCE7084B00221A601B681A
:104840004FF08043C3F804031860C1E7040100403F
:10485000F0ED00E0001000E0080000400001004022
:1048600038B510B1012818D038BD4FF0804302226E
:10487000C3F80823184A10601268184A0121116011
:1048800042F210751C46D4F81834DB03ECD5012035
:1048900002F0C5FB013DF6D1E6E7114B4FF0804435
:1048A0000022C4F808031A601B680E4B42F2107510
:1048B0001860D4F80C34D4F80C24D20303F00103AC
:1048C00005D523B1012002F0AAFB013DF1D1064B31
:1048D00000225A71C8E700BF040100400C000040EC
:1048E0000001004004000040F8080020164B1A6840
:1048F00010B56AB100221A601B684FF08043012294
:10490000C3F80823114B587910B95A711B6898479E
:104910000F4B1A6872B100221A601B684FF0804377
:10492000D3F81824D3F81814920704D10122C3F83D
:1049300018259A6010BD0222C3F80823034BBDE876
:1049400010401B680120184700010040F8080020B3
:10495000040100402DE9F041144A154E154F05465B
:10496000154800244FF0010E5FFA84FC4FF020033D
:10497000EFF3118883F31188BFF36F8F0EFA0CF3F6
:10498000134207D031680B4201BF1943316085F8EB
:1049900000C0384688F31188BFF36F8FB84203D048
:1049A0009A4304F10104DFD1BDE8F081FFFF0F005D
:1049B000000900200000AD0B0200AD0B37B5344BF1
:1049C00001930023C0F80431D0F80421C0F8243149
:1049D000D0F82421C0F81C31D0F81C21C0F80831CF
:1049E000D0F808214B6381F82F308B6A012B0446E5
:1049F0000D4617D10B6A5B0614D40223C4F80032AB
:104A00000123236295F82D20022A18BF23602B680A
:104A100093B140F28623AB60AB681E48C4F8043300
:104A200003B030BD0123E9E72946204602F020FB10
:104A300028B1019B013B0193019B002BF4DC95F80D
:104A40002F305BB91348019B002BE9DC0023C4F82D
:104A5000003505231048C4F80035E1E7D4F8C43424
:104A6000C4F8C4348BB10D4A0B4813F0010F18BFC2
:104A7000104613F0020F02F1010218BF104613F0A6
:104A8000040F074B18BF1846DDE70348DBE700BFFC
:104A9000A08601000000AD0B0100AD0B0000AE0BC5
:104AA0000200AE0B37B5304B01930023C0F8043140
:104AB000D0F80421C0F82431D0F82421C0F81C31EA
:104AC000D0F81C21C0F80831D0F80821C0F8003215
:104AD0004B6381F82F300123036291F82D200D469E
:104AE0009A4218BF8360044602F0A5FA2B6883B18E
:104AF00040F28623AB60AB681C48C4F8043303B0B3
:104B000030BD2946204602F0B3FA28B1019B013B93
:104B10000193019B002BF4DC95F82F305BB913480F
:104B2000019B002BEBDC0023C4F800350523104863
:104B3000C4F80035E3E7D4F8C434C4F8C4348BB106
:104B40000C4A0B4813F0010F18BF104613F0020F68
:104B500002F1010218BF104613F0040F064B18BFF4
:104B60001846DDE70248DBE7A08601000000AD0B38
:104B70000100AD0B0000AE0B0200AE0BF8B50779DB
:104B80001F4D4FF03C0C0CFB07FC05EB0C0494F89C
:104B90002E609EBBA66084F82D6084F8306084F897
:104BA00031600E6863604B7B84F8383006F01F0379
:104BB00045F80C2003F5E0734FF0A04C40F20C6E6A
:104BC0004CF823E04C68006804F01F0303F5E07321
:104BD0004CF823E08B68C0F80865C0F80C45C0F8B5
:104BE00024351AB140F30730FEF734FA3C2303FBB7
:104BF00007550448012385F82E30F8BD0248FCE72C
:104C0000040900200000AD0B0500AD0B026803791C
:104C10000521C2F80015044A3C2101FB03230222AE
:104C200083F82E20704700BF0409002003680A495A
:104C30000279C3F80813D3F8001221F00301C3F876
:104C400000120021C3F80015044B3C2101FB023384
:104C5000012283F82E2070478642040004090020B8
:104C60002DE9F047324E90F80480D0F800903C23B4
:104C700003FB08630C4693F82D30012B174604D133
:104C80000B78012B06D12B4811E0022B02D10B78B7
:104C9000012BF8D13C25284BC9F8083305FB0865E2
:104CA00095F830302BB1AB682448C9F80433BDE81F
:104CB000F08787F00403C3F3800385F830302F6258
:104CC000A646BEE80F0005F10C0CACE80F00DEF8BC
:104CD0000030CCF800306368AB62E3686B626378E5
:104CE000C9F888352378C8EB081A012B06EB8A0A25
:104CF00019D0B3B9C7F340173C2303FB08635146EF
:104D000083F82C704846FFF7CDFE3C2303FB08F8E0
:104D100006EB080256F80830002BC8D182F8303074
:104D2000C5E70127E8E751464846FFF747FEECE7AD
:104D3000040900200500AD0B864204000B00AD0BFA
:104D4000F0B5294C294887B0214602F091F9A446D4
:104D5000D8B994F82F60276AE6B9237B9A1E012AF6
:104D600018D8616AA269914214D1E2696262C7F3FC
:104D7000401762691D48A262032B84F82C7084F8E6
:104D80002D60214603D1FFF78DFE07B0F0BDFFF780
:104D900015FEFAE7164D0FCD01AC0FC42B6823604A
:104DA000F6B1124AD2F8C434C2F8C43498070ED50A
:104DB00001238DF8003000238CF830307B0701D5BB
:104DC000002EE2D0DCE9003168469847DDE759075C
:104DD00001D50223EDE7DA074CBF03230423E8E7FC
:104DE0008DF80060E7E700BF0409002000300040B4
:104DF00010090020F8B5104B104F53F82050013027
:104E000053F82060AE4200D8F8BDD5E90034204602
:104E1000984770B16CB1E41B24116109084A04F091
:104E20001F0452F82100012303FA04F4044342F85A
:104E300021400835E6E700BF5477000060000020FD
:104E400000010020084BC01A0011084B420900F075
:104E50001F0053F82220012303FA00F010420CBF78
:104E600018460020704700BF6000002000010020AD
:104E7000114970B5114C05460E468C4204D10F4CB9
:104E8000B4420AD1002414E02046FFF7DBFF10B142
:104E90002368AB420DD01034EFE72046FFF7D2FF76
:104EA00008B91034ECE72168284601F0EEFA002832
:104EB000F7D1204670BD00BF000100206000002037
:104EC000F8B5164E054600274FF02002EFF3118388
:104ED00082F31188BFF36F8F286988B12F6183F344
:104EE0001188BFF36F8F00F089FA4FF02003EFF3C2
:104EF000118083F31188BFF36F8F02F06EF9E3E73F
:104F000002F043FA012102280446D8BF084602F005
:104F10004CFA7462FEF72AF9D6E700BF4009002078
:104F20000248034A0021121A01F0E6BA20010020CB
:104F3000980D002008B50A4B012202201A70FFF7D5
:104F400059FF00F007FD0320FFF754FF00F090FC2D
:104F5000FCF7A2FB034A137B23F00103137308BD84
:104F6000970D0020C00600202DE98048DFF8F4905E
:104F7000A7B089F30888334D334E6B69DFF8E8A09A
:104F8000324F43F4007300246B61E02385F8223034
:104F9000EC772C766C76AC766B6A43F4E0236B622C
:104FA000FEF740FAFEF7DCF84FF0FF33AB62EB623E
:104FB000274D40F20113ADF8243006ABAB6020461C
:104FC000CDE92044FFF716FF0120FFF713FF4FF054
:104FD000010B00F023FB1F4BAE621F4905934FF4FA
:104FE00080625346CDE9034BCDE90144009430463D
:104FF00000F0E0FB737B804623F0040330467373BC
:1050000002F017F90F23CDE902431449144B4FF472
:10501000A072CDE904B4CDE90054384600F0CAFBD3
:105020007B7BEF6023F004037B7305F11C03C5E970
:1050300007332C76C5F80490524641463046FEF7B9
:1050400075F800BF00ED00E0C0060020400600201B
:1050500040090020CF7B0000A00D0020C0110020DF
:10506000C14E0000401B0020354F000010B5084C19
:1050700023685BB1FDF750FF03462068054A0344EF
:10508000BDE810405361002102F08FB910BD00BF90
:105090007C09002040090020F8B505460C464FF079
:1050A0002003EFF3118683F31188BFF36F8F0D4B4D
:1050B00000224FF4004740F2E73000215A61E7FB3D
:1050C00005014FF47A720023FBF774FF064B18605A
:1050D000064B1C60FFF7CAFF86F31188BFF36F8F82
:1050E000F8BD00BF400900207C090020780900209D
:1050F00049B9EFF3058030B9054B9A6A9B689A422B
:1051000001D0FDF753BF81F31188BFF36F8F704754
:10511000400900204FF02003EFF3118183F3118841
:10512000BFF36F8F044B9A68D37B013BD37381F33A
:105130001188BFF36F8F704740090020094B03F1BE
:105140002C02824205D19B688B4202D14B7BDB064D
:1051500006D1D1E9003213605A600023C1E900335F
:10516000704700BF4009002038B5124C2369A2687F
:1051700001460BB1E5680CE004F12C0002F04FF899
:10518000537B0546980644BF43F008035373002D34
:10519000F0D049B9537BDB0606D1AB6923B9D3897B
:1051A0007F2B01D9A26238BD954201D0FFF75EFF87
:1051B000A562F8E74009002010B54FF02003EFF397
:1051C000118483F31188BFF36F8F084B9A68D37BE8
:1051D0000133D3730020FFF7C7FF84F31188BFF3B7
:1051E0006F8FBDE8104002F004B800BF40090020F6
:1051F00070B490F90D20437B002A2CDBDB062AD10A
:10520000836943BB154A114651F82C4F8C4218BF95
:105210002346002B146B38BF0023B3B190F90E6006
:1052200093F90E50AE4203DBA3420ED01B68F4E7A5
:105230005A68C0E9003210605860437B63F07F0316
:10524000437370BC0020FFF78FBFC0E90014136BDD
:1052500018601063F1E770BC704700BF4009002080
:1052600010B54FF02002EFF3118482F31188BFF3E1
:105270006F8F427B510704D484F31188BFF36F8F83
:1052800010BD22F004024273FFF7B2FF214602482C
:10529000BDE81040FFF72CBF980D002070B590F9C5
:1052A0000D30002B014602DA1748FFF747FF174A77
:1052B0001046146B50F82C3F834208BF0023002B8C
:1052C00038BF0023D3B191F90E6093F90E50AE426E
:1052D00003DBA34212D01B68F4E75868C1E9003031
:1052E000016059604B7B906863F07F034B73431AF6
:1052F0005842BDE870405841FFF736BFC1E900048D
:10530000136B19601163EDE76C0900204009002060
:1053100070B501464FF02003EFF3118483F3118839
:10532000BFF36F8F164B174A98681568A8421D4641
:1053300006D1FFF79BFE84F31188BFF36F8F70BD1A
:1053400000261660104A1268BAB1C2897F2A14D8A2
:10535000427BD20611D10D4A90F90E601268964236
:105360000BDB0B4A904208D05A698A4202DCFFF7F5
:1053700095FFDEE7521A5A61DDE700236B61DAE739
:1053800040090020740900207C09002078090020D1
:105390004006002070B50446183001F0E0FF4FF0E1
:1053A0002003EFF3118683F31188BFF36F8F94F915
:1053B0000D30002B07DA0F482146FFF7BFFE637B55
:1053C00003F07F0363730C4D637BA86843F0100305
:1053D0006373031B58425841FFF7C6FE86F31188DA
:1053E000BFF36F8FAB68A34203D1BDE8704001F0FB
:1053F00000BF70BD6C090020400900202DE9F0417C
:1054000004464FF02003EFF3118283F31188BFF3BA
:105410006F8F437B13F0280F05D082F31188BFF301
:105420006F8FBDE8F08143F02003437382F311884E
:10543000BFF36F8F183001F092FF4FF02003EFF3AE
:10544000118683F31188BFF36F8F637BD80616D163
:10545000A269A2B9190607D526482146FFF76EFEB4
:10546000637B03F07F036373234B9868021B5042F6
:105470005041FFF779FE04F1300800271DE09B073B
:10548000F9D5A0682146FFF759FE637B23F002039C
:1054900063730023A360EEE705F1180001F05FFFDE
:1054A000A8682946FFF74AFE6B7BAF6023F0020332
:1054B0006B73EF672846FFF79BFE256B454501D0D0
:1054C000002DE9D10C4B9A680C4B9A4202D1012075
:1054D000FFF74AFE637B43F008036373236E86F392
:1054E0001188BFF36F8F002B9BD02046BDE8F041A1
:1054F000184700BF6C09002040090020400600202A
:1055000008B590F90D30002B014606DA0748FFF781
:1055100015FE4B7B03F07F034B73054B9868431AD2
:1055200058425841BDE80840FFF71EBE6C090020F4
:10553000400900202DE9F041064614461D464FF073
:105540002003EFF3118783F31188BFF36F8F01F00E
:10555000A0FE87F31188BFF36F8F6B1C08BFB4F1F7
:10556000FF3F08D022462B4606F118000349BDE84C
:10557000F04100F065BABDE8F08100BF5372000051
:1055800010B5074B9868074B0C4618601146DDE9CB
:105590000223FFF7CFFF2046BDE81040FDF706BD10
:1055A00040090020740900202DE9F04105460F460E
:1055B00001F015FF04464FF02003EFF3118883F349
:1055C0001188BFF36F8F124E124BB0681860FFF74F
:1055D00097FFB06810492A463B46183000F030FA71
:1055E000B268537B43F0100353734046FDF7DEFC73
:1055F00001F0F5FE2C44241A4FF0000565F100057A
:10560000002C75F10003B8BF00242046BDE8F081EE
:10561000400900207409002053720000044B00214F
:1056200003F12C02C3E90B220846FFF735BD00BF8A
:1056300040090020F8B5244C244BA2689A4230D08F
:105640004FF02003EFF3118583F31188BFF36F8FC1
:10565000A16804F12C00FFF771FDE36AA268216BD9
:10566000834208BF0023002B38BF00232BB392F9DD
:105670000E7093F90E60B74203DB8B421DD01B689E
:10568000F4E75968C2E900310A605A60537B63F05D
:105690007F0353730120FFF767FD85F31188BFF384
:1056A0006F8F4FF02003EFF3118083F31188BFF366
:1056B0006F8FBDE8F840FDF779BCC2E90001236BAC
:1056C0001A602263E2E700BF400900204006002084
:1056D000B1F1FF3F08BFB0F1FF3F08B502460B46EE
:1056E00006D10B4B9868FFF755FE4FF0FF3008BD11
:1056F00013430AD1FFF79EFF00204FF47A7380FB1B
:105700000323D00B40EA4340F1E7FFF74DFFF4E7F6
:1057100040090020014B9868704700BF40090020F5
:1057200038B504464FF02003EFF3118583F3118859
:10573000BFF36F8F01F0D8FD48B10022C26701F0BE
:1057400078FD29460548BDE83840FFF7D1BCD4E9CB
:1057500002329A4218BF0133A360F2E7980D00208D
:1057600037B514461D464FF02003EFF3118183F344
:105770001188BFF36F8F836843B1013B836081F36E
:105780001188BFF36F8F002003B030BD54EA0503CA
:1057900006D181F31188BFF36F8F6FF00F00F3E72D
:1057A0000246CDE900450248FFF7EAFEECE700BFFC
:1057B000980D00202DE9FF4100F13005C0E90C559E
:1057C0000E9D0573042545730F460D9D8573D61DEB
:1057D00000250C9AC57326F007062037C0E9065548
:1057E000C0E91A76056706F1200802920B9A019229
:1057F00088440A9A009242460446FDF761FC054B34
:105800009B68C4E9175503B15B6F6367404604B0FA
:10581000BDE8F08140090020F0B587B0002505956E
:10582000109D04950F9D03950E9D0295DDE912676D
:105830000D9D01950C9D00950446FFF7BBFF7B1C59
:1058400008BFB6F1FF3F05D056EA070305D1204651
:10585000FFF706FD204607B0F0BD044932463B463F
:1058600004F1180000F0ECF8F4E700BF53720000F8
:105870002DE9F0472A4E2B4D86B0B046B54205F1D2
:10588000300410D3FFF746FC264CDFF89CA04FF401
:10589000004940F2E7360027444521D306B0BDE871
:1058A000F047FFF789BC54F8043C059354F8103CCA
:1058B000049354F8143C039354F8183C029354F89E
:1058C0001C3C019354F8203C009354E90A2354E90A
:1058D0000C01FFF76FFF54F8303CDD652546CDE73E
:1058E000636A5A1C0DD023EAE37330463946C9FB7C
:1058F0000301B94208BFB042256804D12846FFF72A
:10590000AFFC3034C8E74FF47A720023FBF752FB48
:1059100002460B4605F11800514600F091F8F0E7F9
:1059200004010020040100205372000008B54FF06C
:105930002003EFF3118483F31188BFF36F8F044BBF
:1059400098681861FFF726FD2046FDF72FFB00BF82
:1059500040090020024A0349034800F0B8B900BFDB
:10596000AB790000D47B0000F57B000008B5064849
:10597000064A0749121A00F094FDBDE80840054A9E
:105980000549064800F08DBD0000002004010020FC
:105990001C7C0000000000001C7C000000000020B7
:1059A000034B1B680BB9FDF7B7BA0020704700BF67
:1059B0008009002030B5036868B10A4A52689042F5
:1059C00009D043B1D3E90421D0E90445121945EBCC
:1059D0000101C3E90421426813605A600023C0E951
:1059E000003330BD5800002038B5134B1C689C4272
:1059F00008BF0024FFF7D4FF0546BCB1D4E9040179
:105A0000401B61EBE571012871F1000311DB6FF0C0
:105A100000420023824273EB010400DA1046074B78
:105A20005B6913B19842A8BF184638BD6FF00040BB
:105A3000F5E70020F3E700BF5800002040090020F0
:105A40002DE9F74F019119464B1C08BFB2F1FF3FFA
:105A500082466CD0541C6FF0010341F100054FF0F9
:105A6000FF3BB3EB04086BEB0509B8F1000F79F1CC
:105A700000030FDBFFF794FF334AD2E9001C6FF0FD
:105A800001035B1A6BEB0C021E1B62EB0507341A59
:105A900067EBE075019BCAF808304FF02003EFF385
:105AA000118683F31188BFF36F8FFFF779FF012C05
:105AB00075F10003254BB8BF01241A68B8BF002553
:105AC000241845EBE0759A42CAE9044501D05F68A5
:105AD00052B95A68CAF804205A68CAF80030C2F8A5
